:020000040800F2
:10000000A80B00202102000819660008EB52000826
:1000100000000000000000000000000000000000E0
:10002000000000000000000000000000A96C0008B3
:1000300000000000000000003B6600083187000857
:1000400033020008000000005D6800083302000869
:1000500033020008330200083302000833020008AC
:1000600000000000330200083302000833020008D9
:1000700033020008330200083302000800000000C9
:1000800033020008000000000000000033020008F6
:1000900000000000330200083302000833020008A9
:1000A000330200083302000833020008A5A100084B
:1000B0003302000800000000000000000000000003
:1000C00000F002F800F064F80CA030C808382418DA
:1000D0002D18A246671EAB4654465D46AC4201D180
:1000E00000F056F87E460F3E0FCCB646012633424E
:1000F00000D0FB1AA246AB463343184744C0000069
:1001000064C00000103A02D378C878C1FAD8520708
:1001100001D330C830C101D504680C6070470000BD
:100120000023002400250026103A01D378C1FBD813
:10013000520700D330C100D50B60704710B5662957
:1001400002D10BF049FB10BD642902D100F0E4F8A4
:1001500010BD782902D100F015F910BD632902D134
:1001600001F003FD10BD732902D101F006FD10BDA1
:10017000002010BD1FB500F0E3F901F0DDFD040023
:10018000002000210BF0AAF9E0601FBD10B510BDE2
:1001900002F0FEF91146FFF7EDFF0AF00BFF02F047
:1001A00016FA03B4FFF7F2FF03BC0AF0EAFD000001
:1001B00030B40C490C684A6823681068C018106095
:1001C000241D121D8C4207D28A4208D20C604A605C
:1001D00030BC4000400870470C00DC3CF6E70A00E9
:1001E000DC3AF3E74005002070B505460C4616469C
:1001F00002E00FCC0FC5103E102EFAD2082E02D30B
:1002000003CC03C5083E042E07D301CC01C5361F1D
:1002100003E021782970641C6D1C761EF9D270BD34
:100220000748804707480047FEE7FEE7FEE7FEE78E
:10023000FEE7FEE704480549054A064B7047000003
:10024000258B0008C1000008A8050020A80B00208D
:10025000A8070020A8070020704700000FB4054938
:1002600010B503AA029801F08DFC10BC08BC04B0C4
:10027000184700000C00002070B50446856900682E
:10028000C10601D5302600E02026C00707D070BD8A
:1002900062683046A1689047206A401C20626D1E4B
:1002A000F6D570BD70B5044685690078C00707D1E2
:1002B00070BD6268A16820209047206A401C2062BF
:1002C0006D1EF6D570BD70B50C460546012A05D0E9
:1002D0002878800600D5EA69002302E0012305E0C2
:1002E0005B1C934202D2E05C0028F9D1A869E618B1
:1002F000C01AA861286AC01828622846FFF7BCFF08
:1003000004E06A682078A968641C9047B442F8D376
:100310002846FFF7C7FF70BDF7B50025752910689F
:10032000009914A611D0C046C046002802DA404207
:1003300011A608E0009909688A0701D50FA602E016
:10034000490704D50EA6012501E0C046C046009F1E
:100350000024243704E001F029FC30313955641CB5
:100360000028F8D12B4632462146009801F08EF93C
:10037000FEBD0000000000002D0000002B0000006A
:100380002000000070B504460D4621461068C046A6
:10039000C0462188090502D50F4A7A4402E00E4A78
:1003A0007A440E3223460021243305E00607000973
:1003B000360F965D5E54491C0028F7D12078002343
:1003C000000705D5702D03D0002901D0022311327A
:1003D000204601F05BF970BD1CB70000F3B5044680
:1003E000002081B020622046E168884700287DD047
:1003F000252802D06268A16883E0454F00257F442C
:100400002046E16888472028064608DB312E06D2C0
:10041000B81920380078002801D00543F0E7A80774
:1004200001D5042085430020E0610746A0612A2E03
:100430000AD030460AF09EFC002827D0B8000019E8
:10044000303E0090866119E00298BA00121902C885
:10045000916102902046E1688847012F064617D136
:10046000E06900281FDA202085431CE000980A215B
:100470008069484300998019303888612046E168D6
:10048000884706460AF076FC0028EFD1012F0AD0F3
:100490002E2E08D12046E1688847064620200543D5
:1004A0007F1C022FC3DBA069002803DA4042A06151
:1004B00001200543E80701D010208543002E24D0F9
:1004C00030464138192803D80120C00205432036A0
:1004D000204625603146029A1546FFF72FFE002878
:1004E0000CD0012807D0ED1DE80800E00DE0C000A9
:1004F0000830029077E72D1D029574E76268304658
:10050000A1689047206A401C6CE7206AFEBD00008D
:10051000E0B600000B4A30B511460B4C60310B467B
:10052000DC3B0CC1372106E0020C8D0012185A5139
:10053000064A504300190A46491E002AF4DC30BD21
:100540000120E7E7E0040020E119D666CD0D0100A7
:10055000F8B5042A2CD3830712D00B78491C0370FA
:10056000401C521E83070BD00B78491C0370401CA3
:10057000521E830704D00B78491C0370401C521E86
:100580008B079B0F05D0C91ADF002023DE1B08C98B
:100590000AE0FFF729FEF8BD1D4608C9FD401C46CC
:1005A000B4402C4310C0121F042AF5D2F308C91A14
:1005B000521EF0D40B78491C0370401C521EEAD422
:1005C0000B78491C0370401C012AE4D4097801709F
:1005D000F8BD01E004C0091F0429FBD28B0701D537
:1005E0000280801CC90700D00270704700290BD020
:1005F000C30702D00270401C491E022904D383079E
:1006000002D50280801C891EE3E70022EEE700226B
:10061000DFE70000024670B50A4392072AD11E4D5B
:10062000EE0104C808C9541B9443344017D0D0B21B
:10063000D9B2401A2106014310D190B299B2401AA2
:10064000210401430AD110021902000A090A401AC2
:100650002102014302D1100E190E401A70BD9A42B8
:10066000DFD010BA19BA884201D9012070BD00202C
:10067000C04370BD02780B78401C491C002A09D089
:100680009A4207D102780B78401C491C002A01D0FD
:100690009A42EFD0D01A70BD010101018178C27871
:1006A00003780904120611434278100218430843E4
:1006B0007047020A08704A70020C8A70020ECA70F3
:1006C000704710B542780378110E120213438278F6
:1006D000140C12041343C2782143140A1206134364
:1006E0000279214311434279120211438279C07980
:1006F0001204114300060143184610BDF0B50D0663
:10070000040A2C43107054700D04040C2C43947094
:100710000E02040E34430F0AD4700D0C1171577180
:100720000E0E9571D671F0BD002203098B422CD3B9
:10073000030A8B4211D300239C464EE003460B4331
:100740003CD4002243088B4231D303098B421CD393
:10075000030A8B4201D394463FE0C3098B4201D385
:10076000CB01C01A524183098B4201D38B01C01ABD
:10077000524143098B4201D34B01C01A5241030934
:100780008B4201D30B01C01A5241C3088B4201D3E3
:10079000CB00C01A524183088B4201D38B00C01A90
:1007A000524143088B4201D34B00C01A5241411AB7
:1007B00000D201465241104670475DE0CA0F00D09A
:1007C0004942031000D34042534000229C46030993
:1007D0008B422DD3030A8B4212D3FC22890112BA19
:1007E000030A8B420CD3890192118B4208D38901F1
:1007F00092118B4204D389013AD0921100E0890909
:10080000C3098B4201D3CB01C01A524183098B42E9
:1008100001D38B01C01A524143098B4201D34B01D2
:10082000C01A524103098B4201D30B01C01A524135
:10083000C3088B4201D3CB00C01A524183088B42BC
:1008400001D38B00C01A5241D9D243088B4201D345
:100850004B00C01A5241411A00D201466346524130
:100860005B10104601D34042002B00D5494270472F
:1008700063465B1000D3404201B50020C046C0462D
:1008800002BD7047704770470246C80FC0078143DA
:100890004B0030B54B405B009B0D20D01923DB068D
:1008A000C91801231B05994220DB0324A407042552
:1008B0001346AB400BD3002B04D1EB0613409B0037
:1008C000E34204D401246407002312195941FF2391
:1008D0001B0599420BD2C9000143500F09E0CB021E
:1008E00004D501430803024305D0054830BDFF216C
:1008F000C905084330BD084607210905884330BDB6
:100900000000C07FF0B50C46871A9C410D46861A40
:100910009D4103D2C01BA141D21963410D0D1F0D92
:10092000C94EEC1BAE435CD07F057F0D0026002F27
:1009300051D02D05AC46A943DD020123ED0A1B056C
:100940001D4320231B1B24D41746E7403818714150
:100950002F46E740CC199D402818314661410C0DC7
:1009600027D161449A4013D50023401C59415200BD
:100970000ED14008400001224B005205D34207D35C
:1009800005204007C14201D5B04900E0B0493046DA
:10099000F0BD6B00002A00D001229A181F23203CD2
:1009A0001B1B01D5002302E0E540281871410C0D06
:1009B000D7D0012424050919C407CD0740084908E8
:1009C000E40F28436144002CD5D00024401C614131
:1009D0009A40D0D1CDE76A05520DD9D1C90FC907C8
:1009E000D5E79C4D4E00002801D0012400E00024F2
:1009F00034195F00002A01D0012600E00026BE194C
:100A0000954FAC420CD8AE420AD8B44206D001256C
:100A10006D05EC42BCD010461946F0BD9942FCD0A1
:100A200000203946F0BDF0B51FB40C460F46811AC0
:100A30009F412546861A9D4106D20125ED076F404C
:100A4000401ABC4152187B41210D1E0D8D1BAC4636
:100A50007D4D8D437ED075056D0D7CD00D05AE4668
:100A6000AC431B031B0B794D52429D41202366462C
:100A70009B1B14D31746F74038180026009074418A
:100A800060462F460741E41900989D4028186641AA
:100A900016D4714671189A4025D5012320E0931889
:100AA0002A466A415200002B00D0521C1E23203ED1
:100AB0009B1B002B61DD3541EE1728186641E8D5F8
:100AC000001876415B1C9A4000D3401C4B05F3187C
:100AD0001524E34010D3002B52D071467118D30F68
:100AE000C01802D3491C05B0F0BD0123DB079A42B0
:100AF000F9D140084000F6E701225205B21801D1B1
:100B0000002853D00123CC0ADB029943891E002A16
:100B100008D1020C03D0020C0004103902E0024696
:100B2000002020390023550B05D112020823550B54
:100B300001D152010D23550C01D112011B1DD50C01
:100B400001D192009B1C150D01D152005B1C202588
:100B5000EE1A01E02CE022E00546F54015439840EE
:100B6000CA1AE10769181305C918002ABBDA03205D
:100B700040070818C10FC9070FE071466118B2E7B6
:100B8000F10740080843711071444A000CD001235A
:100B90005B059A42A7D2C90FC9070020A3E7490500
:100BA000490D26D1002001E00028F4D100219AE768
:100BB000284D6600002801D0012100E000217118B5
:100BC0005F00002A01D0012600E00026BE19224F56
:100BD000A94210D8AE420ED8B14208D001256D0509
:100BE000E94206D01946A802414010467BE79C42E4
:100BF00001D0214677E70020394674E710B50C464E
:100C00005C4005D50124E4076340FFF70CFF10BDED
:100C1000FFF778FE10BD30B40C465C4004D50124CB
:100C2000E407634030BC6DE630BCFCE670B50124DF
:100C3000E40761400D465D4002D4FFF763FE70BDDE
:100C40006340FFF7F0FE70BDFF0700000000F0FFFB
:100C50000000F07F0000E0FF0000F87FF0B5F94DE4
:100C60000C091E092C402E402F468BB0A7437DD087
:100C7000B543FCD0002E7AD0002CFCD00D465D4050
:100C8000ED0F2543AC1BFF25AD0464190894C50284
:100C9000440DC9022143500DDC0204430120C0076A
:100CA00001430443D2020191200C110C00958C46A3
:100CB000010423468B430A9161460904E24D8A43AD
:100CC0000991010A7D4449198039097805464D4347
:100CD00001266D18F605751B6943C90C640B891C48
:100CE0004C436418B5012C1B250C2E04B4434C4313
:100CF0004D43210C691889090591009DE90701D030
:100D00000121C90704912C4601996708CD072F439B
:100D10004C08059DE10B4D432D0C29466646754355
:100D200002950D4645432E46029D7D1BB44100951C
:100D30000D465D4301942C0C2F040D465543AE46E1
:100D40002D0C3D43029503947546049C2D04641BB1
:100D5000049406D2029C039D641C002675410395F1
:100D6000029401AC70CC009F7D1B01E03EE162E18A
:100D7000B44109040095079101940599A4086143C1
:100D8000090C0C464443650BE7040C466646744365
:100D9000A646640B3C43039502947446049DE40408
:100DA0002C1B049406D2029C039D641C00267541F2
:100DB0000395029401AC70CC009F7D1BB44101945B
:100DC0000C465C430095650FE7000C465443A6466D
:100DD000640F3C43039502947446049DE4002C1B6D
:100DE000049406D2029C039D641C00267541039561
:100DF000029401AC70CC009F7D1BB441AE09AF06DC
:100E0000049DC900AD092F43049DA406AD060495B9
:100E1000079D344369180791059DE10B4D432D0C47
:100E200029466646754302950D4645432E46029D6A
:100E30007D1BB44100950D465D4301942C0C2F049D
:100E40000D465543AE462D0C3D4302950394754621
:100E5000049C2D04641B049406D2029C039D641C14
:100E6000002675410395029401AC70CC009F7D1B58
:100E7000B44101948C050694079C890A6118009579
:100E80000791019C0599A4086143090C0D4645434F
:100E9000680BEF040D46644665436C0B3C43049FAE
:100EA000ED047D1BAC4602D20025641C6841009E07
:100EB000019D371B85410846584301950C46460F56
:100EC000C5005443600F28436546E4002C1B02D242
:100ED0000025401C6E41019D3F1AB5412846BD09C1
:100EE000800628438446A009BF064E020699A40640
:100EF00076180743079D002068410A990790194317
:100F00000020099B00906046FF1913434041E20F07
:100F100064003A43A4460446D71A8C41A04203D940
:100F20000120009020463A46C70F9418404162467F
:100F3000D20F2243644664000494009CBE466400C1
:100F4000D71AA446044602978C417746002F01D158
:100F5000A04204D96046401C8446029A2046C40F31
:100F6000A64694184041049A0546D20F224364468F
:100F70006400D31A8D417146002901D1A84202D9DB
:100F800028461A46641C10430122002800D016434C
:100F900061020020079B891904465C410223002C52
:100FA00002DB491813466441089DCE0A2D145D19D1
:100FB0004B056705E10A2C050D1908993E43C90741
:100FC0006940002B08D0934006D30022761C514183
:100FD000002B01D1760876001C4A002D43DB154218
:100FE00041D0AA433FD030460BB0F0BD06180D46A5
:100FF0004D41174C7642AC411AD395181C465C41C2
:10100000134A6D42A24113D3012252054C00D4422F
:101010000AD15C00D4420BD04B4002D5920211435E
:10102000E2E749004908DFE75940C90FC90718E05E
:1010300000200849D8E7054801420DD10342F7D006
:10104000F2E700000000FF072BAE00000000F07F79
:101050000000E0FF0000F87F114859400143C01232
:1010600041400020C0E70123089A9B069A4205DC14
:10107000032252078918C90FC907B5E7052252078D
:101080008918074A1143D2125140ADE770B5154691
:101090001C4602460B4628462146FFF7DFFD70BD81
:1010A000FFFFFF7F0346CA02400D10B510430A152B
:1010B00004D00124E4072043002A05DB0A4CA21ACD
:1010C00004D4D040FF2A00DD002010BD4A00002BD0
:1010D00001D0012000E00020101801225205D0426A
:1010E000F2D8C817C04310BD1E0400001F22030C15
:1010F00002D10F22000402D0030E03D004E000202E
:10110000014670470002083A030F01D10001121F87
:10111000830F01D18000921E002801DB4000521E87
:10112000120551184205C012411810467047C10FF0
:10113000C90700D04042012292071143D6E701219E
:101140008907D3E7F0B58B4C0F09254689B0BD431D
:101150007BD01D092646AE43FAD00E465E4027409E
:10116000F60F3E43254071D024012142FBD0FF24DD
:10117000AD19A4042D1B039501252D05DB02DB0A07
:10118000C9022B43C90A29431E010901040F130F89
:10119000050121431701880B820391432D098C46D9
:1011A000A90B1E438A039543B30B9A0396433F0949
:1011B000BA0B9403A74302962E467E430497B64685
:1011C0004E19D7190C460196544305977E43371B99
:1011D0007646BF1B3601B646BE0B361900967646DC
:1011E000BC043719009C01D3641C00946400002FD8
:1011F00001D001263443029E049F754366467E4318
:101200000496760034196E0034190094029C019EF5
:101210001C196643751BAE46069465464519059C28
:1012200005956C43594375460891691A0191049ECE
:1012300001465143A41B0491611A009C0791E106E9
:1012400005D061090122114302E072E06EE06109FC
:10125000089D00272C0A2D066918049D7C412A0A46
:101260002D066918019D6241AC0DAD026D18544107
:10127000079A910D920255196141029A64465843AA
:101280005443069B059A5A43121A131B9A0E9B014C
:101290005B187A41010B0005C3185141220A200650
:1012A00044195A419A4200D2491C0120400281420D
:1012B00003D315230226F64302E014230326F64344
:1012C0002020C51AA9401746AF40DA400A432046FD
:1012D0000399D8400914731819055118039A384313
:1012E000D2075140AC4009D00122944006D30022DD
:1012F000401C5141002C01D1400840001E4A93423D
:1013000012D3012203989206904207DB0520400782
:1013100009181A480143C012414004E00320400765
:101320000818C10FC907002009B0F0BD0020F1075F
:10133000FAE705180C464C4111486D42A04115D3FF
:1013400094181A465A410E48644290410ED3012027
:101350004A004005824209D35A00824206D35940CE
:10136000C90F084AC90700201143DDE700200649DC
:10137000DAE700000000FF07FE070000FFFFFF7F25
:101380000000E0FF0000F07F0000F87F70B5054628
:101390004800440D124B0020002C0AD0634008D0B6
:1013A0009A4206DA6642B24203DD12054019514103
:1013B00070BD002C08D0002B09D0C90FC907002A26
:1013C000F6DB084A114370BDC90FC90770BD284636
:1013D0000A03104302D00020034970BD284670BDA7
:1013E000FF0700000000F07F0000F87F0121C90521
:1013F0000123411842001B06D3185B0E0AD0C1100E
:101400000722D206891840075242D14201D5520024
:1014100089187047090208D50146002A03D0C10F78
:10142000C9070020704710467047420202D00020D2
:1014300002497047072109050143F4E70000F87FDE
:10144000F0B5FF252D04C609C209FF2704462E402A
:101450000137CB093E4348402A402B400746002A2B
:101460006BD0002B69D0AA4267D0AB4265D0002870
:1014700000DA32460125ED0529432C4309022002FA
:10148000090AD21A4B0C7F24E31A434C000A7C440D
:10149000E35C7D242404121914145B00A218884212
:1014A00001D3521C00E0400049420C465C43241129
:1014B0005C43DB016415E318040A5C43C502200D9C
:1014C0000C4644436419250A5D432303EC0C0D4686
:1014D000654300030019EB184C42A34201D35B188B
:1014E000401CD4052018002B07D05B00C91804D37A
:1014F000401C002901D1400840003F2189048A4254
:1015000009D3002A08DC1106090F04D0032149077A
:101510004018C00FC007F0BD012241001206891813
:101520007F2252069142F6D205214907C84201D5D1
:101530009010F0BDFF20C005F0BD002F00DA32464C
:101540001648AA4207D2AB4205D21902090E17D09B
:10155000F80FC007F0BDFF2563002D06AB42F9D898
:101560004900A942F6D8AB4201D1A942F2D0A94222
:1015700001D1002101E061004908D0050843F0BD18
:101580001102090EFBD0FF200243D005F0BD0A4630
:101590000146104654E70000E1A600000000C07FAD
:1015A0000102C21504D00123DB071943002A0ADB1C
:1015B0009E239A1A02D40846D0407047FF22410069
:1015C0001206914201D900207047C017C0437047EE
:1015D0001F22030C02D10F2200041CD0030E01D1E4
:1015E0000002083A030F01D10001121F830F01D13D
:1015F0008000921E002801DB4000521ED2055118C7
:10160000021251181922904004D3491C002801D11C
:101610004908490008467047C10FC90700D0404239
:10162000012292071143D3E701218907D0E7000087
:1016300010B5FF22C30D134009D05A4007D0914284
:1016400005DA5C42A14202DDC905081810BDC40FCD
:10165000E407002B06D0002A06D0002902DBFF2079
:10166000C0050443204610BD4102FCD0004810BD17
:101670000000C07F704710B500F062FB006810BD2D
:1016800010B5044600F05CFB046010BDFFB50446D5
:101690000D4681B0243000902168880604D51022C0
:1016A000E0699143216000E00120A84201DD471B71
:1016B00000E000270498A1697A191018081AA0619F
:1016C0002078C00602D42046FEF7D6FD002608E0AA
:1016D00003986268A168805D9047206A401C761C70
:1016E000206204988642F3DB2078C0060AD52046A3
:1016F000FEF7C2FD06E06268A16830209047206ACC
:10170000401C206238467F1E0028F4DC07E0009869
:101710006268A168405D9047206A401C20622846AC
:101720006D1E0028F3DC2046FEF7BCFD2078000685
:1017300002D5022005B0F0BD0120FBE77047FFB5E0
:101740000C461E468FB003CA089009914F007D0DCC
:1017500000D16D1E002108460020C0460321099AD1
:1017600089050840002A03DA8200801840080840F2
:10177000800D01280A9002DD0020C0430A900898DD
:1017800007430DD0F048F14928184843071418982A
:1017900000281DD07542291E1DDD0A9842421BE01B
:1017A0001898012802D00020302104E00020F243E4
:1017B00005E02154401CB042FBDB30460022189B60
:1017C000002121540F998B600A60486013B0F0BD6E
:1017D000BD1B6D1CDFE70A9A002900DA69420BA8DD
:1017E00000F04CFB0BAB07CB03AB07C30899099880
:1017F00000F0B0FB6B4607C30146D5480918002D21
:1018000000910BDDD24903980A9A494240180023FF
:1018100003A90390684600F00DFE08E003990A9AB8
:101820000023081803A90390684600F0ADFD6B463D
:1018300007C30004000C03D00020C043410800E0AF
:101840001046189A002A03D00022009215461EE086
:10185000751E05D400F078FA303262556D1EF9D548
:1018600001220843079602D000227F1C04E0207862
:10187000302801D100227F1E002A069787D01EE063
:10188000112D07DA00F060FA303262556D1C024605
:101890000A43F5D1084303D00098002819D00EE080
:1018A0000021681E05E0235C625C63542254401EE4
:1018B000491C8142F7DBA81B401E07950690079A3A
:1018C00018990020A0540F98079B069A81600CC0BD
:1018D0007CE711260020189059E7D21DF0B50D467F
:1018E0000446D10893B0C90003C90C900D9108F0CB
:1018F000A5FD02460D98C00F01D02D2007E02068FD
:10190000810701D52B2002E04007C00F4001032AC8
:101910000F9001D0072A05DB03462946204600F038
:1019200069FA0EE12078800601D5E76900E0062714
:101930002846652D04D0662814D0672D69D12DE086
:101940000020112F009001DB112300E07B1C0CAA6A
:1019500003A910A8FFF7F3FE1199002610987D1C2B
:101960000E9142E001203B460CAAC0070B900120DB
:10197000009003A910A8FFF7E2FE119D129810999C
:10198000002600280E9501D1781C0D18781B02D472
:1019900046427D1C761EE81B00903AE0012F00DADB
:1019A00001270020112F009001DD112300E03B46AC
:1019B0000CAA03A910A8FFF7C2FE11993D46109882
:1019C00000260E91217809070BD40E99A94200DA5E
:1019D0000D4603A9012D04DD4A19203AD27F302A91
:1019E00006D0B84201DA011D04DA012100910FE0AE
:1019F0006D1EEFE7002802DC86192D1A03E0411C5A
:101A0000A94200DD0D46801B401C00900120C0074C
:101A10000B902078000705D40098A84202DB002034
:101A2000C043009069460020C8720B98012102AFA4
:101A30000337C907884225D0022010902B2011902F
:101A40000B9800280BDA40420B902D20119006E0F5
:101A50000B9800F0ABF830317F1E0B903970109965
:101A6000481E00291090F3DC0B980028F0D1119843
:101A70007F1E38702088000501D5452000E06520D4
:101A80007F1E387001A8C01BC01D0B900F98002846
:101A900000D0012041190098C01709180B980818A8
:101AA000A169081A401EA0612078C00602D4204611
:101AB000FEF7E2FB0F98002805D06268A168904706
:101AC000206A401C20622078C00625D52046FEF7FB
:101AD000D3FB21E0002E07DB0E98B04204DD03A803
:101AE0006268805DA16802E06268A168302090476A
:101AF000206A761C401C20620098401E002800903E
:101B00000AD100F019F9C06862680168405CA168F8
:101B10009047206A401C206228466D1E0028D9DCB0
:101B200007E062683878A1687F1C9047206A401CF3
:101B300020620B99481E00290B90F2DC2046FEF72C
:101B4000B1FB032042E6000001FCFFFF104D000046
:101B5000E1DFFFFF10B54369002B02D0C046C0464D
:101B600001E0FEF7B0FB012010BD127801462431E0
:101B70000A7000224A700122ECE711680022D24369
:101B8000E8E70000084B70B50D467B4400F01FF9F4
:101B90000446284600F09EFC002802D00020C043E6
:101BA00070BD204670BD00001394000001468008FF
:101BB000081A02091018020A1018020C1018C0089E
:101BC000820012185200891A01E0401C0A390A29C1
:101BD000FBD27047F0B53D4B02460C461C4000203E
:101BE000002C63D03A4D8B4366D000296BDB0B0D84
:101BF0001D05A94301252D0529430124FD33E3409B
:101C000001D392184941FF3381339C468B02940DD6
:101C10000121234389074C42920200271B198C1093
:101C20005D1A04D42D1B02D42B4665004919921865
:101C30005B416408F4D15C1A08D40125ED07EE1766
:101C40005519744102D42A462346491C94185B4115
:101C5000012292071D46E61B8D4106D4B61A854126
:101C600003D42B46550034467F1924195B41520892
:101C7000802AEFD1234300D0022338460A22D040E5
:101C800001D3012213438A0510436246890A1205D3
:101C90008918002B09D00122D34002D30022401C16
:101CA0005141002B01D140084000F0BD0B0313430C
:101CB00007D0C90FC907F0BD0803104303D100299D
:101CC00001DB1046F0BD00202946F0BD0000F07F8A
:101CD0000000F87F10B5FF231B0644009C421DD86E
:101CE0004C009C421AD80346124A0B4307D4401AB0
:101CF00002D3EFF3008010BDEFF3008010BD081A8F
:101D000006D2EFF3008001219043C907084302E0A7
:101D1000EFF30080904380F3008810BD0D231B0477
:101D20001A4204D01146002000F0D8FB10BD00F08C
:101D300023FC10BD0000009000487047680500209B
:101D400000487047480500200B4670B502468907D9
:101D50008008084319469D08141AA9412509080757
:101D6000054308092C194841250A01060D43010ABB
:101D70002C194141200C0D0428430D0C00194D4134
:101D8000002140194D41C00869070843E908840F44
:101D90008D002543840024184D4124196D41121BE8
:101DA000AB4107E00925ED432C1152196341002492
:101DB000401C61411C460A250026551BB441F1D246
:101DC00070BD000001694A1C02610878704700B5C7
:101DD0008FB0029100210591054901937944039147
:101DE000114604906846FEF7F9FA0FB000BD0000F6
:101DF000E5FFFFFFF8B51F46044601230068DB023C
:101E0000032601461840072A05DB002801D017A544
:101E100006E017A504E0002801D016A500E016A5ED
:101E2000102081432160A069C01E002FA06101D055
:101E3000401EA0612046FEF71FFA002F09D0384649
:101E40006268A1689047206A401C2062C01C206222
:101E500006E0206AFAE762682878A1686D1C90475E
:101E6000761EF8D22046FEF71DFAF8BD4E414E0010
:101E70006E616E00494E4600696E6600F7B5164603
:101E80008AB0334878446C4603467C33C06F5A6846
:101E90009B680DC42E487844763003AC0DC80DC441
:101EA0003720C001081837211B30FEF747FC0546D4
:101EB0000C46803D1B3C02D56442012000E000201E
:101EC0000027099010E0E0070CD00C20204978434F
:101ED000794432464C3941186846012300F054FADF
:101EE0006B4607C364107F1C002CECD1184F7F4455
:101EF0002E3F16E0E80712D02001C0190EC8069147
:101F0000089307920068F04201D198190890324670
:101F1000012306A903A800F037FA03AB07C36D102D
:101F2000641C002DE6D10998002806D03246694687
:101F3000012303A800F07EFA05E00123324669463A
:101F400003A800F021FA0A9B07C30DB0F0BD000002
:101F5000489F0000034640000A4610B5400D0BD0D4
:101F60000121C9070F24A40200191C03640821439E
:101F7000540D2143D20207E000210120F2E7D40FE3
:101F8000490021435200401E0029F8DADB0FDB072D
:101F9000184310BDFFB50D46144685B0486851681A
:101FA00008F026FA00910190A868A16808F020FACC
:101FB00002910390A868616808F01AFA029A121850
:101FC0008242029201D2012000E00020019A0B1807
:101FD000D2180028019202D08A4202D903E08A4234
:101FE00001D2012000E000200099081800906868E4
:101FF000A16808F0FDF9029A12188242029201D2F9
:10200000012000E00020019A0B18D218002801924C
:1020100002D08A4202D903E08A4201D2012000E0C4
:1020200000200099081800902868216840004900A5
:10203000400849084018FA49471814E0019940003F
:10204000C90F08430090019802994000C90F084346
:102050000190029803994000C90F08430290039829
:1020600040007F1E039000980028E7DA08980028B7
:1020700001D0EC4E00E00026B74201DA012000E07A
:102080000020002804902AD0F71BF806C00E15D0B7
:10209000029B2021091A039A8B401A430392029A49
:1020A000019BC2408B401A430292019A009BC2409E
:1020B0008B4000991A430192C14000917B110DD0D1
:1020C0006F460320C11A03D500218200B95003E0F6
:1020D0008A008100BA587A50401EF3D537460398DB
:1020E0000299002800D0012001430898029100289D
:1020F00008460CD0002800D001200199019A49051A
:1021000008430121D20AC902D202019200E0012152
:102110000E9B0122D207012B02D0002B03D013E02B
:10212000002807D120E0904204D890420CD1019BB6
:102130000B4209D0019B5918019105D10099491C06
:10214000009101D17F1C009200280DD0102108467B
:102150000020C0460498002806D00F98002803D01D
:10216000082108460020C04628682168019B009A83
:102170004840C10F0598C90739430EC009B0F0BDEA
:10218000FFB587B0099A0898089953689268406823
:10219000896896460022039317469446089A126867
:1021A0005300099A5B081268520052089A1A9E4B13
:1021B000D4180A9A002A01D0352200E04022069263
:1021C0000022012315460492DB07059324E0002D2D
:1021D00005D175460346039E4D1BB34109D3754691
:1021E0006646039B491B049D9841059B7519AC46A7
:1021F0005F4163463B4308D0059B049EDD0776089C
:102200002E435B080496059301E0521E641EC50F21
:10221000ED0749184041521C069B9A42D7DB002D1E
:1022200004D17546039A6B1A824101D203200CE057
:10223000039A0B466B404240134303D0014303D043
:10224000012002E0022000E000206146019100210F
:10225000009702910A99002905D061464002014386
:10226000704B019102E08007002302909C4201DA4A
:10227000012000E0002007003AD01A1BD006C00E53
:1022800015D0029D2021019C091AC5408C40254390
:10229000029C8C4000D001242543019C0295009DA6
:1022A000C4408D4000992C430194C14000915411C9
:1022B0001DD06D460221002202290CD10320001BF3
:1022C00007E0002804DB8600AE59002E00D0012272
:1022D000401C0328F5DB081B02D588002A5004E0C7
:1022E0008000285810438A00A850491EE3D51C4698
:1022F0000A98002802980CD0002800D001200199EB
:10230000019A490508430121D20AC902D202019269
:1023100000E00121109B0122D207012B02D0002BEB
:1023200003D013E0002807D11FE0904204D8904268
:102330000CD1019B0B4209D0019B5918019105D189
:102340000099491C009101D1641C009200280CD016
:10235000102108460020C046002F06D01198002802
:1023600003D0082108460020C04608980999019A20
:10237000009B006809684840C10F0798C9072143BE
:1023800082600AC00BB0F0BD00B585B00193009229
:102390000A460146002302A8FFF7FCFD02A807C871
:1023A00005B000BDFFB50A461F4685B007990193E9
:1023B00001230091014602A8FFF7ECFD0299039862
:1023C000049ECA0F4900D20700920F2249089202C8
:1023D0008C1A0021002800DB0C46450013486D08CC
:1023E000844214D3079A002A04DA441E0026104DB2
:1023F000F64302E004460D460E4610210846002032
:10240000C046002F03D0042108460020C046200506
:10241000E90A0843009908436905F20A1143ADE649
:1024200002C0FFFF013C0000FF3F0000FF0700006B
:10243000FFFFFF7F00B585B0019300920A46014679
:10244000002302A8FFF79CFE02A807C8A8E7FFB573
:102450000A461F4685B00799019301230091014662
:1024600002A8FFF78DFE02990398049ECA0F490047
:10247000D20700920F22490892028C1A00210028EC
:1024800000DB0C46450011486D08844214D3079ABE
:10249000002A04DA441E00260D4DF64302E00446ED
:1024A0000D460E46102108460020C046002F03D0DE
:1024B000042108460020C0462005E90A0843009987
:1024C00008436905F20A114358E60000FF070000BF
:1024D000FFFFFF7FC068802108407047C80212D507
:1024E0004803400F002804D0C803C043012188409E
:1024F0007047EFF30080000100090321090708433A
:1025000080F30088704700207047000030B5034614
:10251000CA02400D1043164D164C0A1502D0204336
:10252000002A06DBAA1A002A12DDD040FF2A0BDCA3
:1025300030BD5205520D01D140004008AA1A07D4FF
:10254000D0404042FF2A01DD002030BD0028FCDDE4
:102550004A00002B01D0012000E0002010180122C9
:102560005205D042F0D8C817C043604030BD0000CB
:102570001E0400000000008010B5024800F02FF893
:1025800010BD00000000C07F0048704748050020D3
:102590007546FFF7F9FFAE46050069465346C00889
:1025A000C000854618B020B5FDF744FE60BC00278A
:1025B0004908B6460026C0C5C0C5C0C5C0C5C0C50F
:1025C000C0C5C0C5C0C5403D49008D46704710B567
:1025D0000446C046C0462046FDF7E3FD10BD10B5D9
:1025E0000C461107090F092904D00A290AD0082925
:1025F0000CD104E011460820FFF770FF06E05106F9
:1026000006D501E0510601D50120C007214610BDC5
:10261000D10607D501010909CC084907000E0006BB
:10262000044309E0410F20024907000A0143200E3C
:1026300000061D22D14101430846E7E7F8B50446EC
:1026400000200090206802F000FF002845D120689B
:102650008168234A10261140002930D18168D54372
:102660002940491C81601F480068072189050840EE
:1026700000020AD51D481C490068FEF755F8401CA9
:1026800000E0401E00900028FBD1607E012824D08D
:1026900001F080FA07461BE002F0D7FE002804D1C3
:1026A000206881682940491C816001F073FAC01BD1
:1026B00002280DD920680068C043C00708D0A06D6B
:1026C0003043A065E06D01210843E0650846F8BD90
:1026D00020680168C943C907DED10020F8BD0000A9
:1026E0001700008008270140400D03001C00002057
:1026F000410710B5490F242004F058F910BD00001F
:102700007CB57D21C90168460180032101711A4809
:10271000FDF7C4FF400001214008C905884223DBC2
:10272000FEF764FE05460C462A46234613A0FDF735
:1027300095FD28462146194A194BFEF703FD002254
:10274000184BFEF78BFA08F027FE0022164BFEF717
:10275000F9FCFEF7A7FC69460880002201A968463B
:1027600000F034F8032003E010A0FDF777FD00200F
:10277000FFF7BEFF7CBD0000B00300205B4150505E
:102780005F4C4F475D584C333535BBBDD0D1BDC7CD
:10279000B6C8A3BA252E32660D0A00004AD8124DDB
:1027A000FB21094000806640C04CDF405B41505037
:1027B0005F4C4F475D584C333535B2BBC6F4D3C37D
:1027C000C7E3BDC7BBBDD0D10D0A000070B50C4634
:1027D0000546012A0DD005882520290A04F0E6F8CF
:1027E000E9B2262004F0E2F82178272004F0DEF890
:1027F00070BD0121252004F09DF80602012126204C
:1028000004F098F8C0B2304328800121272004F05A
:1028100091F8207070BD000008B500210002000B87
:102820000091010301D502490843009008BD000052
:102830000000F0FFF0B585B0044600F09DF80028D8
:102840007DD0494D2868FEF772FC484E0022334681
:10285000FEF704FA224610320292FDF74FFF686835
:10286000FEF765FC00223346FEF7F8F922461832DF
:102870000192FDF743FFA868FEF759FC002233469A
:10288000FEF7ECF9224620320092FDF737FF009860
:10289000FDF717FF05460E460098FDF712FF2A4682
:1028A0003346FEF74FFC06460F460198FDF709FF39
:1028B000054603910198FDF704FF2A46039BFEF7A6
:1028C00041FC32463B46FEF799F908F0B3FD054658
:1028D0000E460298FDF7F5FE2A463346FEF7BEF98E
:1028E00008F050FA224A234BFEF72CFCFDF7CCFFF0
:1028F0002146FDF7DEFE0098FDF7E3FE05460E4695
:102900000098FDF7DEFE2A463346FEF71BFC07461D
:1029100000910298FDF7D5FE05460E460298FDF798
:10292000D0FE2A463346FEF70DFC3A46009BFEF7E2
:1029300065F908F07FFD05460E46019800E010E0BD
:10294000FDF7BFFE2A463346FEF788F908F01AFA6B
:10295000074A084BFEF7F6FBFDF796FF211DFDF732
:10296000A8FE05B0F0BD00002C00002000400F4183
:10297000B694631ADCA54C4038B500241A4D00F01B
:10298000E9F9009068460078C0071DD003210820AF
:1029900003F0D0FF154CE06003210B2003F0CAFFC9
:1029A000206103210E2003F0C5FF6061E068FFF79E
:1029B00033FF20602069FFF72FFF60606069FFF739
:1029C0002BFFA060012038BD63200146401E80B26D
:1029D0000029FAD1641CA4B2AC42D0D104A0FDF706
:1029E0003DFC002038BD0000520300002C000020F8
:1029F0005B4150505F4C4F475D58A1A259A1A25A6C
:102A0000D6E1BCD3CBD9B6C8D6B5B6C1C8A1B4ED52
:102A1000CEF30D0A00000000F0B5BDB00546FFF78B
:102A200009FF2846FDF73AFE02900090281DFDF7A9
:102A300035FE01900026039005A8FFF7FBFEB400C9
:102A400028AF0599395114AA06981051009808F03A
:102A500023FE01D23859009028A80159029808F0A5
:102A600099FD02D228A80059029014AF3959039851
:102A700008F012FE01D2385903903959019808F034
:102A800089FD01D2385901902846FDF707FE28A993
:102A9000095908F039FD2946FDF70BFE281DFDF701
:102AA000FDFD395908F030FD291DFDF702FE761CA9
:102AB000B6B2132EC0D32846FDF7F0FD009908F0FA
:102AC00023FE029908F020FE0E4C2146FEF7B8FCCA
:102AD0002946FDF7EEFD281DFDF7E0FD009908F001
:102AE00013FE019908F010FE2146FEF7A9FC291DEE
:102AF000FDF7DFFD294628310348FDF7DAFD3DB03B
:102B0000F0BD00000000904100007A4838B500F0A8
:102B10002AF9642000F0DEFEC1212C2003F046FFDC
:102B200003212B2003F042FF0621282003F03EFF63
:102B300008212A2003F03AFF0121002003F0FAFEC9
:102B40000121084603F0F6FE0121022003F0F2FE07
:102B50000121032003F0EEFE1A4C607E227E000667
:102B6000011411436846018000226946104600F0B6
:102B700047F8A01C417E007E0906091401436846FF
:102B8000018000226946012000F03AF8617F207F31
:102B900009060914014368460180002269460220A3
:102BA00000F02EF8FFF7ACFD00F0C5F8012102207F
:102BB00003F0C0FEED2803D003A0FDF74FFB38BDA6
:102BC00008A0FAE7B00300205B4150505F4C4F472C
:102BD0005D4144584C333535204572726F72A3A164
:102BE0000D0A00005B4150505F4C4F475D41445817
:102BF0004C33353520496E6974204F4B210D0A0046
:102C000070B50D46012A0FD000240C5F002832D089
:102C1000012838D0022824D12004010E222003F0FC
:102C2000C5FEE1B2232035E0002804D001280BD0F6
:102C3000022815D116E001211E2003F07BFE0002C0
:102C400004B201211F2007E00121202003F072FEC1
:102C5000000204B20121212003F06CFEC3B2234321
:102C60002B8070BD0121222003F064FE000204B21B
:102C700001212320F0E72004010E1E2003F096FE20
:102C8000E1B21F2006E02004010E202003F08EFE9A
:102C9000E1B2212003F08AFE70BD000038B50024A7
:102CA000144D00F057F8009068460078C00712D025
:102CB0000221062003F03EFE0F4988618869FEF775
:102CC000B3FC0E4908F020FD0D49FEF7B9FB0D4994
:102CD00008F01AFC38BD63200146401E80B200296E
:102CE000FAD1641CA4B2AC42DBD107A0FDF7B6FA5E
:102CF000002038BD520300002C0000200080E74473
:102D0000CDCC10C10000C8415B4150505F4C4F47D3
:102D10005DCEC2B6C8D6B5B6C1C8A1B4EDCEF30D6E
:102D20000A00000010B552212F2003F03FFE64205E
:102D300000F0D0FD10BD10B501212D2003F0FAFDEB
:102D4000C0B2410849002D2003F030FE142000F0ED
:102D5000C1FD10BD08B50121042003F0EBFD69465B
:102D60000870C0B208BD10B501212D2003F0E2FDAE
:102D7000C1B2012001432D2003F018FE142000F001
:102D8000A9FD10BD70B50A4DFF22EE1D1346F936A0
:102D900005E0047854402A5D5A40335D401C0C46DF
:102DA000491E89B2002CF4D11002184370BD0000F6
:102DB000A2B8000838B517A0FDF750FA25A0FDF716
:102DC0004DFA15A0FDF74AFA26A0FDF747FA802232
:102DD0000421684607F0F4F900280BD169460A5C23
:102DE000203A602A07D329A0FDF738FA7D20C000D9
:102DF00000F070FD38BD401CC0B20428EFD3284A53
:102E0000002013180C5C2033401CC0B21C7704282F
:102E1000F7D338BD0D0A0D0A3D3D3D3D3D3D3D3DDD
:102E20003D3D3D3D3D3D3D3D3D3D3D3D3D3D3D3DD2
:102E30003D3D3D3D3D3D3D3D3D3D3D3D3D3D3D3DC2
:102E40003D3D3D3D3D3D3D3D3D3D3D3D3D3D3D3DB2
:102E50000D0A0000312EB8FCB8C4C3DCC2EB0D0A69
:102E6000000000000D0AC7EBCAE4C8EBA3A834B801
:102E7000F6C8CED2E2D7D6B7FBA3AC457363BCFC91
:102E8000CDCBB3F6A3A9A3BA000000000D0AC3DCA2
:102E9000C2EBC9E8D6C3CAA7B0DCA3A10D0A0000E3
:102EA0005003002005480169C943C90503D40449FA
:102EB00081610020704701207047000000700040D1
:102EC0000001010038B5214C21A0FDF7C7F930A061
:102ED000FDF7C4F91FA0FDF7C1F9607E217E000255
:102EE00008433C21FDF720FC01462DA0FDF7B6F973
:102EF00031A0FDF7B3F935A0FDF7B0F901210020AD
:102F000002F0F4F9054634A0FDF7A8F9312D1CD1E3
:102F100033A0FDF7A3F90321684607F0D1F9002893
:102F2000D2D001210098C905374A411A914208D8E8
:102F3000364908F059FBFEF733FB2076000A60762D
:102F4000C2E733A0FDF78AF9BEE738BD7103002060
:102F50000D0A0D0A3D3D3D3D3D3D3D3D3D3D3D3D67
:102F60003D3D3D3D3D3D3D3D3D3D3D3D3D3D3D3D91
:102F70003D3D3D3D3D3D3D3D3D3D3D3D3D3D3D3D81
:102F80003D3D3D3D3D3D3D3D3D3D3D3D0D0A00004E
:102F9000332EB2C9D1F9D6DCC6DA0D0A0000000022
:102FA000312EB8CBCBFEC7E3D0B128B7D6D6D329C4
:102FB000A3BA25640D0A0000C6E4CBFCC8CED2E259
:102FC000BCFCB7B5BBD80D0A000000000D0AC7EB6A
:102FD000CAE4C8EBA3BA00000D0A0D0A0000000005
:102FE0000D0A312EB8CBCBFEC7E3D0B1B2C9D1F9AF
:102FF000D6DCC6DA28317E323430B7D6D6D32FD5D8
:10300000FBCAFD293A0000000000F04200007042B7
:103010000D0ACAE4C8EBB4EDCEF3000072B6FEE7C9
:1030200003494A6901231B04184302434A6170475C
:1030300000200240044A5069F8239843C900014324
:103040000248014351617047002002400200010024
:1030500030B505494C6901252C434C610260BFF332
:103060006F8F436030BD00000020024030B50B4C34
:10307000002362690125AD042A436261EFF31082E7
:1030800072B620C95B1C20C0DBB2402BF9D320698B
:10309000C003FCD482F3108830BD00000020024041
:1030A000F8B5054600F076FD471901263604114CA7
:1030B00003E000F06FFDB84214D220693042F8D12D
:1030C00021690D4801400D48206103D00C48416042
:1030D0000120F8BD00F05EFD451905E000F05AFD45
:1030E000A84201D30320F8BD20694003F6D4002094
:1030F000F8BD000000200240FA830000FB830000BE
:10310000B4020020F0B58DB004466846FFF784FC99
:103110002B48FDF7C3FA0146009808F0F5FA05467A
:10312000E0602748001DFDF7B9FA0146019808F054
:10313000EBFA20612846FEF759F9224E224F32461B
:103140003B46FDF7FFFF0022204BFDF787FD08F00F
:1031500095F9FDF799FB05462069FEF747F93246D8
:103160003B46FDF7EFFF0022184BFDF777FD08F017
:1031700085F9FDF789FB164F06463946284608F0C3
:1031800033FA60603946304608F02EFA3146A060C6
:10319000084608F029FA06462946084608F024FAA7
:1031A000314608F0B1F9FEF721F908F043F9FDF7CF
:1031B0006BFB394608F018FA20600DB0F0BD000036
:1031C000810300204AD8124DFB210940008066404F
:1031D00000007A44F8B500270646044640360097BA
:1031E000307D0D4601280FD001203075206802F097
:1031F00030F900280AD0A06D20210843A0650127DE
:10320000002030753846F8BD0220F8BD68680228F5
:103210007ED001222169D207914202D0121D914233
:1032200006D120682968826A4903490B0A436EE087
:10323000C206D20E0F20216E9040814328684303BE
:1032400002D0C3074BD102E04000C00E48E0830724
:1032500001D5012044E0430701D5022040E00307E7
:1032600001D503203CE0C30601D5042038E08306E5
:1032700001D5052034E0430601D5062030E00306E1
:1032800001D507202CE0C30501D5082028E08305DF
:1032900001D5092024E0430501D50A2020E00305DB
:1032A00001D50B201CE0C30401D50C2018E08304D9
:1032B00001D50D2014E0430401D50E2010E00304D5
:1032C00001D50F200CE0C30301D5102008E08303D3
:1032D00001D5112004E0400301D5122000E00020B8
:1032E0009040014321666968E2698808401C904269
:1032F00010D820682B68826A9C46C906C90E0F2325
:103300008B409A4363469B001B0F8B401A4300E09F
:103310003BE082622168AB6828684A690002824308
:1033200018404001400902434A612868002800DB38
:1033300066E72B4A116807239B051940294B9842E1
:1033400014D10B0212D4C0020143104602F08DF8D2
:10335000264825490068FDF7E7F90C21401C484341
:1033600000E0401E00900028FBD149E7204B984226
:1033700003D1CB0101D4800205E01E4B9842D7D186
:103380004802D5D45802014325E001212069C9072C
:10339000884202D0091D884206D120682968826AC5
:1033A0004903490B8A43826228680028C0DA0C4A24
:1033B000116807239B0519400A4B984201D1C002AE
:1033C00008E00B4B984201D1800203E0094B984280
:1033D000AED140028143104602F047F810E70000EA
:1033E00008270140001000B0400D03001C00002021
:1033F000004000B8002000B40068006C7047000076
:10340000F0B50446002087B0039006460290009075
:10341000002C05D02746A06D2037002803D009E0F6
:10342000012007B0F0BD204600F018F90020E0654B
:103430005421085520688168C900C90F12D18168DC
:103440007D4A114001221207114381607C487B496B
:103450000068FDF769F94000801C00E0401E009004
:103460000028FBD120688168C900C90F08D1A16D6F
:1034700010221143A165E16D01221143E165039220
:1034800001F0E7FFA16DC90601D4002804D0A06DAA
:1034900010210843A065CCE0A06DFF2101318843D5
:1034A00002210843A065206801F0CFFF002833D136
:1034B0002068C16818229143A2681143C160606806
:1034C000E16C800F8007024632430E46397F164377
:1034D000012908D1626C216C401C1143A26C02438B
:1034E00008461043064320680169564A114031439B
:1034F000016103216068890788420DD05107884225
:103500000AD04900884207D04F4A91680F239B0494
:103510009943184001439160207E8503607EC0037B
:103520000543A07E41030D43216B002901D00121F9
:1035300009030D43E1680D432169002902DA4900BE
:10354000490801E0012149050D43397B49000D433C
:1035500002990D433978012909D1002856D0A06D70
:1035600020210843A065E06D01210843E065606A01
:10357000002806D0FF22C1321040A16A28430D4620
:1035800005432068C168314A11402943C160216860
:1035900008692F4A1040304308610021626B20689F
:1035A00001F06AFF2B49A26B206801F065FF0F2133
:1035B0002069C94300282DD001225205904216D11E
:1035C000226E002086001346F340DB431B0702D027
:1035D000401C0828F6D301281CD02068836A237F6A
:1035E0009B001B1FDB06DB0E9940114381622068A4
:1035F000C06819490840A84211D10020E065A06DBB
:1036000080088000401CA06503980AE701200004A0
:103610000543ACE72068826A0A438262E7E7A06D4F
:103620000221884310210843A065E06D0121084371
:10363000E06501200390F4E6E8FFFF7F400D030002
:103640001C00002002FCFF1F002701401902FEFFA2
:1036500002FCFFDF04FFFF07E7FF3F8310B586B0E2
:10366000044614216846FCF7D2FF104920688842BE
:103670001AD10F480268012109050A430260006857
:10368000084005900A484038426B02210A434263D1
:10369000406B0091084005900320019000200290AB
:1036A0006946044800F0BEF906B010BD0024014090
:1036B0004010024000040050F8B5044640690D4631
:1036C000082809D02068C068C00707D0A06D202155
:1036D0000843A0650120F8BD082600E0042600F09C
:1036E00059FA074615E0681C13D000F053FAC01BC6
:1036F000A84201D8002D0CD120680068304208D1C2
:10370000A06D04210843A0650020403420750320EB
:10371000F8BD206800683042E5D0A06D0121490263
:103720000843A065206801F098FE0C25002812D0FF
:10373000A07E00280FD12068016809070BD501F091
:1037400088FE012100280AD0A06D20221043A06528
:10375000E06D0843E065207E00280BD00CE0206877
:103760004268AA434260A06DFF22013290430843A1
:10377000A065F0E7206805600020F8BD70B504463C
:10378000006801F066FE002802D00221084670BDE4
:1037900025464035287D01280AD00120287520467D
:1037A000FEF74CFF01460020002903D02875EDE705
:1037B000022070BDA26D094B1A40FF2301331A434A
:1037C000A265E06523681C221A602875206882685B
:1037D000034B1A40121D8260D8E70000FEF1FFFF84
:1037E000E8FFFF7FF0B5002808D0014620314A7974
:1037F000022A05D00422C263002008710120F0BD16
:10380000026813680E24A3431360426C1468FF23FC
:1038100001339C43146002681468640864001460F7
:103820000C4A5568066C1C24264001242746B740E4
:103830003D435560826CC56C5560026D002A05D011
:1038400015689D431560826D406D42604C7100208B
:103850000871F0BD00000240F8B500240246203295
:103860005179022903D00421C16301242DE00168AC
:103870000B680E25AB430B6001680B685B085B00AF
:103880000B60416C0B68FF250135AB430B601049A1
:103890004D68066C1C231E4001231F46B7403D4364
:1038A0004D60816CC56C4D60016D002906D00E68BD
:1038B0001D02AE430E60416D856D4D605371002158
:1038C0001171816B002900D088472046F8BD0000A7
:1038D0000000024070B5044600F05CF90546601C2B
:1038E00002D004480078241800F054F9401BA0428C
:1038F000FAD370BD10000020F8B51F4E0446307892
:103900000F4601280AD001203070002070607D2011
:10391000C000FFF7C5FB002802D029E00220F8BD57
:10392000042161602268042A03D0491F3960A56818
:1039300014E00846FFF774FB7D20C000FFF7B0FBE2
:1039400016E029466068FFF775FB7D20C000FFF791
:10395000A7FB002801D03D6005E06D1CE268A1686E
:103960008918A942EDD805494A6902239A434A6158
:1039700000213170F8BD0000B40200200020024098
:10398000054901204A69C3071A434A614969002968
:1039900000DA00207047000000200240F0B51FB49C
:1039A000144C06462078154601280AD001202070C4
:1039B00000277D20C0006760FFF772FB002803D05E
:1039C00010E0022005B0F0BD012E0DD0294601986F
:1039D000FFF74CFB7D20C000FFF762FB06494A69F8
:1039E000B2434A612770EDE72A46039B0198FFF72F
:1039F0002FFBEFE7B4020020002002400649002020
:103A00004A69002A07DA054A8A60054A8A604969D4
:103A1000002900DA01207047002002402301674599
:103A2000AB89EFCDF0B50023032498E001259D403C
:103A30002A407DD00E79B607B60F012E01D0022E96
:103A400016D186682746B4465E00B646B74066463D
:103A5000BE43B446CF687646B74066463743876074
:103A60004668AE430D79ED06ED0F9D403543456048
:103A70000D79ED43AD0708D0C5685F002646BE400E
:103A8000B5438E68BE402E43C6600D79AD07AD0FBD
:103A9000022D0ED1DD08AD002D18AC462D6A5E0753
:103AA000F60E0F27B740BD430F69B7402F43654659
:103AB0002F6205685F002646BE40B5430E79B60703
:103AC000B60FBE402E4306604D68AD03AD0F45D026
:103AD0009E08264DB6007519AC462D6E9E07F60E53
:103AE0000F27B740BD4305273F07B84201D1002744
:103AF0000FE01F4FB84201D101270AE01D4FB84225
:103B000001D1022705E01C4FB84201D1032700E094
:103B10000527B7402F4365462F66144E803635681B
:103B20004F689543FF0300D515433560756800E085
:103B300014E04F689543BF0300D5154375600B4EE5
:103B400035684F689543FF0200D5154335607568A9
:103B50004F689543BF0200D5154375605B1C0A682A
:103B60001546DD4000D061E7F0BD000000180240BE
:103B70000004005000080050000C0050006908408C
:103B800000D001207047002A01D081617047816216
:103B90007047000001488068704700001000002056
:103BA00001480069704700008075FF1F70B5040070
:103BB0000FD021681548086021681548086003CCBB
:103BC00041602068083C21688860FFF7E3FF0546F4
:103BD0000CE0012070BDFFF7DDFF401B312805D947
:103BE0002068C068400701D0032070BD2068C0680D
:103BF0004007F0D120680269E1688A4201D0016182
:103C000001E004490160002070BD0000CCCC000040
:103C100055550000AAAA0000006802490160002072
:103C200070470000AAAA000002488168027889183B
:103C3000816070471000002010B50848002401681A
:103C4000821511430160204600F00AF8002801D0D7
:103C5000012401E000F028F8204610BD00200240B9
:103C600070B50F4E002431780546002915D07D200F
:103C7000C000FCF759FD01460A480068FCF754FDF6
:103C800001F056F8002808D1042D06D2002229465A
:103C9000401E00F02BF8756000E00124204670BD46
:103CA000100000201C00002008B50948016801220E
:103CB0001143016000681040009005484038C26B15
:103CC00001040A43C263C06B0840009008BD0000B5
:103CD00040100240002805DBC106C90E01208840C3
:103CE000014908607047000000E100E010B506F0EF
:103CF000BBFB10BDBFF34F8F04490348C860BFF33F
:103D00004F8F00BFFDE700000400FA0500ED00E062
:103D100010B50F4C216803225202914301432160E8
:103D2000C11FFF39FA390ED10A48062100684843FD
:103D30000949FCF7F9FC401C02E0002805D0401EB0
:103D400061694905F9D4002010BD032010BD0000B1
:103D5000007000401C00002040420F0003498A68A8
:103D60002B23184082438A60704700000070004097
:103D700002480168821511430160704700700040DD
:103D8000054AD3682B2101408B43000A0343D360CB
:103D900090680843906070470070004006480168D2
:103DA000C908C900C91C0160044801690422114303
:103DB000016130BF704700000070004000ED00E07E
:103DC000F8B50446006800264D4D800358D54C4890
:103DD00000274038C06BC00009D449484038C26B46
:103DE00001040A43C263C06B0840012700904548A4
:103DF0000168821511430160FFF7CCFE009005E0D9
:103E0000FFF7C8FE0099401A022825D83D480068EF
:103E1000C005F5D5E8690321090208400FD06169A2
:103E200081420CD0E86903210902EA698843012133
:103E300009040A43EA61EA698A43EA61E861C00762
:103E40000FD0FFF7A7FE009008E0FFF7A3FE009950
:103E5000411A2D48814201D9032609E0E86980070B
:103E6000F3D5E86903210902884361690843E861E1
:103E7000002F05D022484038C26B01048A43C26338
:103E80002078C00705D06869616880088000084311
:103E900068612078800606D5686903210903884394
:103EA000A168084368612088400411D568692169C8
:103EB00080008008084368610121206989078842E1
:103EC00006D10F484038C168012212041143C16075
:103ED0002088000512D56869032189038843E168B9
:103EE000084368610121E0688903884206D10448DB
:103EF0004038C168012212041143C1603046F8BD48
:103F0000401002400070004088130000F8B50F46D2
:103F1000060043D04D4D28684007400FB84213D2E9
:103F20002868C008C00038432860FFF733FE044605
:103F300005E0FFF72FFE011B4548814261D8286844
:103F40004007400FB842F4D13068424C81070DD58C
:103F5000400704D5A068072109030843A060A068B2
:103F60000F2109028843B1680843A0603078C00778
:103F700032D0706801280AD002280BD000280FD058
:103F80003449403103280ED0C969890704E021680B
:103F9000890301E021688901002906DB0120F8BDC1
:103FA00021684905F8E7096AEFE7A168C908C9006F
:103FB0000143A160FFF7EEFD009006E0FFF7EAFD88
:103FC0000099411A224881421BD8A0683821084034
:103FD0007168C9008842F1D128684007400FB84293
:103FE00017D91A480168C908C90039430160FFF7A9
:103FF000D1FD054607E0FFF7CDFD411B1448814286
:1040000001D90320F8BD114800684007400FB842AD
:10401000F1D13078400706D5A0680721090388430D
:10402000F1680843A06000F031F8A1683C228909DA
:104030001140094A515CC906C90EC84007490860C9
:1040400007480068FFF70CFEF8BD000000200240A2
:10405000881300000010024010B800081C00002067
:10406000140000200648074900688968064A490488
:10407000490F8900515CC906C90EC840704700004D
:104080001C0000200010024050B8000810B5204C61
:10409000A068204A8006400F16D0A0688006410F15
:1040A000501001290FD0A1688906490F022912D0AA
:1040B000A0688006400F042823D0A0688006400F27
:1040C000032821D0002010BD206801218004400F6A
:1040D0008140104612E0E1688B07E1689B0F4906BA
:1040E000490F491C032B00D01046FCF71DFBE1686B
:1040F0004904490E4843E168490F491CFCF714FB89
:1041000010BD0120C00310BD7D20000210BD0000C5
:10411000001002400024F400F8B504007ED020789E
:104120003827C007EB4D002846D0A868E96838401A
:104130008907890F102802D008280BD001E0032935
:1041400008D001206268000482420AD12968014334
:10415000296015E0286880032ED560680028DDD02E
:104160002AE0052301211B0489049A422A6802D10E
:104170000A432A60EAE782432A6028688843286065
:10418000606800280CD0FFF705FD064604E0FFF745
:1041900001FD801B642873D828688003F7D50BE0E5
:1041A000FFF7F8FC064604E0FFF7F4FC801B6428E8
:1041B000F1D828688003F7D42078800769D5A868EB
:1041C000E96838408A070721920FC902102802D0F7
:1041D000002813D001E0022A10D0E068002846D061
:1041E000286888432169084328602868FF21013135
:1041F00008432860FFF7CEFC06462CE02A685205EB
:1042000002D5E268002A89D06A687F231B029A439C
:1042100063691B021A436A60002800E08DE00ED13A
:1042200028688843216908432860286801218004A0
:10423000400F8140A848FCF777FAA8490860A848D1
:104240000068FFF70DFD002877D122E0FFF7A2FC00
:10425000801B02289FD828684005F7D568687F2111
:1042600009028843616909020843686011E029680E
:10427000FF20013081432960FFF78CFC064605E0F2
:1042800098E0FFF787FC801B022884D82868400547
:10429000F7D42078934E00072ED5A8688006400FEB
:1042A00003280AD0A0690028306A16D001210843EB
:1042B0003062FFF76FFC07460BE0306A80071BD5C2
:1042C000A06900289FD017E0FFF764FCC01B0228FC
:1042D00070D8306A8007F7D50EE0400840003062A1
:1042E000FFF758FC074604E0FFF754FCC01B022808
:1042F00060D8306A8007F7D4207840076CD5A8686A
:1043000000278006400F042818D0E86BC00008D4AE
:10431000E96B012000070143E963E96B01400127D4
:10432000009171480168C90519D4016882151143CB
:104330000160FFF72FFC00900DE083E0F06980073B
:104340004AD5A06800287DD046E0FFF723FC0099FD
:10435000401A02282ED864480068C005F5D5A16827
:10436000012910D004200529F16911D0490849001C
:10437000F161F1698143F161A068002816D0FFF76F
:1043800009FC00900EE0F06901210843F061F3E7B9
:104390000143F161F7E7FFF7FDFB0099411A53482C
:1043A00081426DD8F0698007F5D50EE0FFF7F2FB8A
:1043B000009007E064E0FFF7EDFB0099411A4B48DD
:1043C00081425DD8F0698007F5D4002F04D0E96BF5
:1043D000012000078143E963E069002877D0A968DC
:1043E0008906490F022951D001263606022828687D
:1043F0000DD0B0432860E86880088000E860E86875
:104400003B490840E860FFF7C5FB04463AE0B0438B
:104410002860FFF7BFFB074604E0FFF7BBFBC01BAC
:1044200002282DD828688001F7D4616A206AA26A20
:104430000843E16A120211430843216B0843E9680B
:104440002C4A00E041E011400843E860286830430E
:104450002860E868012109070843E860FFF79AFB34
:10446000044604E0FFF796FB001B022808D82868E2
:104470008001F7D52BE0FFF78DFB001B022801D947
:104480000320F8BD28688001F5D420E00128F8D089
:10449000E868226A8107890F914216D17021626A09
:1044A0000140914211D17F21A26A0902014012020A
:1044B00091420AD11F214904E26A0140914204D18C
:1044C000400F216B4007884201D00120F8BD002039
:1044D000F8BD0000001002400024F4001C00002081
:1044E00014000020401002400070004088130000BB
:1044F000FFFFFEEF8C80C11F026840688900101822
:10450000FF30013008180068704703684068890070
:104510001818FF300130081802607047F7B50546DB
:1045200004462035287A012815D001272F72022051
:1045300068722168CA2048622168532048621E4878
:10454000826901158A438261C068400619D4FFF769
:1045500021FB064611E00220FEBDFFF71BFB811B7D
:104560007D20C000814208D92168FF2048620320D5
:104570006872002028720320FEBD2068C0684007D2
:10458000EBD520688169C908C9008161206882690A
:1045900002990A4382612168019848612068816913
:1045A00001229202114381612168FF2048626F72EB
:1045B00000202872FEBD000000280040F7B5054627
:1045C00004462035287A01281CD0012028720220B8
:1045D00068722168CA2048622168532048622068B6
:1045E00081690127BF02B94381612068C16D04223E
:1045F0001143C1652048C068400619D4FFF7CAFAC4
:10460000064611E00220FEBDFFF7C4FA811B7D20A3
:10461000C000814208D92168FF20486203206872E7
:10462000002028720320FEBD2068C0684007EBD53B
:1046300021680198486120688169C908C9008161C1
:1046400020688169029A114381610C480168012246
:10465000D2041143016020688169521111438161C4
:1046600020688169394381612168FF204862012007
:10467000687200202872FEBD0028004080180240A9
:1046800001490120087070470900002010B5044658
:104690000068016D490706D5C16D04221143C1654B
:1046A0002046FFF7EDFF01202034607210BD10B5E9
:1046B00000680B464068C021C94301400002000E5B
:1046C000CC04D870E40E5C708C06A40E0904490F6B
:1046D0009C701970002A0AD101F0B0FFD870587888
:1046E00001F0ACFF5870987801F0A8FF9870002096
:1046F00010BD000010B50B4601688968596001685B
:1047000009694904490C9960006801680E48014034
:104710008802800E4C041870640E5C704C06640EA7
:104720004902C90F9C70D970002A0AD101F086FF96
:104730001870587801F082FF5870987801F07EFF69
:104740009870002010BD00007F7F7F0070B5044688
:104750000120002C49D025462035687A002806D152
:1047600028721120C0026060204600F041F802204B
:1047700068722168CA204862216853204862204636
:1047800001F070FF002829D120688169174A114083
:10479000816121688869A268E369104362691A43EC
:1047A0001043886121682069086120680169A28935
:1047B000120411430161204601F076FF00280DD15B
:1047C00021688A69D200D2088A6122689169636A85
:1047D000A6691943236A3343194391612268FF2173
:1047E0005162002801D10121697270BDBFFF8FFBAA
:1047F00008B50068094988420ED10948C1690122FB
:10480000D2031143C16106484038C26B01150A4307
:10481000C263C06B0840009008BD00000028004043
:1048200040100240F8B5064605462036307A0B4661
:1048300001280FD00127377202207072002A0BD096
:10484000D8789C780004044358780978000249031A
:10485000084317E00220F8BD5878C10603D5EF21C0
:1048600008400A305870D87801F0F0FE04045878F7
:1048700001F0ECFE00020443987801F0E7FE0443E7
:104880001878400304432968CA20486229685320E5
:104890004862284601F0E6FE002806D10748044099
:1048A00028684460284601F0FFFE2A68FF21516213
:1048B000002800D1777200213172F8BD3FFFFF0060
:1048C000F7B5064605462036307A0C46012810D04A
:1048D00001203072022070722968CA20486229685B
:1048E00053204862284601F0BDFE0027002802D070
:1048F00027E00220FEBD029800282868806926D0A3
:10490000400600D4E7702078A37800040343607861
:10491000E1780002890508430343184803402868EA
:1049200003602868816901229204914381612169B1
:10493000E068084329688A6910438861284601F0C5
:10494000B3FE2A68FF215162002813D014E040060C
:1049500000D4E770207801F079FE0304607801F05C
:1049600075FE00020343A07801F070FE0343E07877
:104970008005D1E7012171723772FEBD7F7F7F0014
:1049800070B504460068C168A0229143C160FFF77A
:1049900001F97D260546F60006E0FFF7FBF8401B0F
:1049A000B04201D9032070BD2068C0688006F4D5EC
:1049B000002070BDF8B504000CD0606A0025002806
:1049C0000AD02561656126464036A562707F0028C1
:1049D00008D00BE00120F8BD6168C81FFD38F2D097
:1049E000E561F0E73577204600F05CF80222727747
:1049F000206801684023994301600723E1681B0296
:104A0000994201D9002001E0012000030F273F0255
:104A1000B94202D0994200D0A562FF2361680533F4
:104A200019402127A368BF023B4019432369134063
:104A3000227D1943D207D20F11430123A2695B02E1
:104A40001A401143E26938231A401143226A802335
:104A50001A401143A26A9B011A4011432268116057
:104A6000A1690422090C1140626A10231A40114303
:104A7000626B08231A4011430F23E2681B021A409D
:104A80001143012212031040014320684160206855
:104A9000C16952109143C1612566012070770020E1
:104AA000F8BD0000F0B587B0044614216846FBF756
:104AB000AEFD1F492068884237D11E48C26B0914D9
:104AC0000A43C263C26B0A400592416B012631431F
:104AD0004163416B31400591416B0225294341639C
:104AE000406B002428400590082005273F070090D0
:104AF000029403946946019504943846FEF792FFA8
:104B0000102000900294694604960195039438465B
:104B1000FEF788FF6802009005200490029401953A
:104B2000039469460448FEF77DFF07B0F0BD00001E
:104B3000003800400010024000040050FFB5044659
:104B400083B0012001900020254640350090287F49
:104B50000C9F1E4601280FD001202877FFF71AF876
:104B60000290687F616801280DD0CA1FFD3A08D104
:104B7000A168002905D102E0022007B0F0BD042899
:104B800001D00220D1E00498002820D00598002808
:104B90001DD0002E1BD0687F042801D00520687727
:104BA0000020206605992164EE80AE800499A163FF
:104BB000E687A687E064206507210120E2680902F4
:104BC00000038A422268536803D9834302E001202C
:104BD000ABE00343536020680268520603D40268C6
:104BE00040231A430260E0688842606844D9002884
:104BF00001D0012E39D1A06B21680088C860A06B5C
:104C0000801CA063E08F401EE0872EE02068816852
:104C1000890710D5E18F00290DD0019901290AD10A
:104C2000A16B0988C160A06B801CA063E08F401E4F
:104C3000E0870020019020688168C9070DD0E988CD
:104C400000290AD0C068216C0880206C801C206478
:104C5000E888401EE88001200190FEF79BFF029942
:104C6000401AB84201D3781C5ED1E08F0028CDD124
:104C7000E8880028CAD146E0002801D0012E3CD1A6
:104C8000A06B216800780873A06B401CA063E08FC4
:104C9000401EE08731E020688168890710D5E18FE8
:104CA00000290DD0019901290AD1A16B097801735E
:104CB000A06B401CA063E08F401EE08700200190A5
:104CC00020688168C9070DD0E98800290AD0007BD7
:104CD000216C0870206C401C2064E888401EE8802D
:104CE00001200190FEF756FF0299401AB84202D304
:104CF000781C02D018E0002F16D0E08F0028CAD10F
:104D0000E8880028C7D139462046029A01F06CFE97
:104D1000002803D001200090202020660120687721
:104D200000202877009828E703200090F6E700008D
:104D3000094910B5401E884201D9012010BD074C19
:104D400060610321081F05F08FFB0020A061072090
:104D50002061002010BD0000FFFFFF0000E000E028
:104D600010B5014680310A78012A15D001220A7057
:104D700024224A600268136814686408640014609E
:104D800001225207934300224266006803602020FC
:104D900048600A70104610BD022010BD7047704771
:104DA00070B5044605468034207801281AD00120C9
:104DB000207024206060286806680268520852004B
:104DC00002602868826807235B069A430A43826070
:104DD000284604F00FFD286806602020606000204F
:104DE000207070BD022070BD70B504460546803449
:104DF0002078012819D001202070242060602868C4
:104E00000668026852085200026028688268D20070
:104E1000D2080A438260284604F0ECFC2868066049
:104E2000202060600020207070BD022070BD70479F
:104E30007047000010B50168CA69D24312070AD44E
:104E400008220A6200680449884204D10122034909
:104E5000034800F009FA10BD003801400A000020A4
:104E600094010020F8B503680446D96918689A6867
:104E7000B24D0E462E4025468035002E75D0B04EE0
:104E8000B04F1640074037436ED0CF0706D0C70556
:104E900004D501271F62EB683B43EB608B0708D505
:104EA000D30706D0276802233B62EB6804273B4305
:104EB000EB604B0708D5D30706D0276804233B6275
:104EC000EB6802273B43EB600B0709D52023034027
:104ED000334305D0266808233362EE681E43EE6034
:104EE0000B0509D5430107D501232668DB02336290
:104EF000EB6820263343EB60EB68002B42D0890639
:104F00000AD520210840C9050A40104304D0216F6A
:104F1000002901D020468847E86821688968490649
:104F200002D42821084232D0204604F027FD21680F
:104F30008868400627D5EFF31080012282F310889D
:104F40008B68402293438B6080F31088E06F0028C9
:104F500019D07D498163E06FFEF77EFC002811D0F7
:104F6000E06F816B0DE000E017E08E0615D501279C
:104F700020263F07064017403E430ED0216FB1E088
:104F800020468847F8BD2046FFF754FFF8BD20466D
:104F9000FFF750FF0020E860F8BDE66E012E7CD1DF
:104FA000CE067AD5C60678D510221A62236898688C
:104FB000264640064036002847DAE16F0868406818
:104FC0000004000CE8D0B78B8742E5D9F08308686D
:104FD0000068800634D4EFF31080012181F310883B
:104FE00019681701B943196080F31088EFF3108036
:104FF000012181F3108821688B685B085B008B605E
:1050000080F31088EFF31080012181F3108821686C
:105010008B684027BB438B6080F310882020A860FA
:105020000020E066EFF31080012181F310882168F1
:105030000B6893430B6080F31088E06FFEF7D2FBA0
:10504000B08BF18B401A81B233E0B08BF18B401AF8
:1050500081B2F08B00289FD000299DD0EFF3108003
:10506000012686F310881E68FF272137BE431E6085
:1050700080F31088EFF31080012383F310882368F6
:105080009E682F4FFF433E409E6080F31088202093
:10509000A8600020E066206700E00EE0EFF31080DB
:1050A000012383F3108823681D6895431D6080F3F6
:1050B00010882046FFF772FEF8BDCE0208D55602D2
:1050C00006D50120000518622046FFF7B1FEF8BDA5
:1050D0000E060BD501278026FF0506403A401643F1
:1050E00004D0616F002900D04AE7F8BD4A0614D504
:1050F000420612D52046EFF31081012282F3108878
:105100001C68402294431C6081F310882021696050
:105110000021416700F0E8F8F8BD0A0205D5420019
:1051200003D52046FFF783FEF8BDC901FCD5002852
:10513000FADA2046FFF733FEF8BD00000F08000042
:1051400001000010200100046999000870B50400F6
:1051500005D0254680356868002802D006E0012089
:1051600070BD00202870204600F026F824206860DA
:1051700020680168490849000160204604F068FE83
:105180000128EDD0A06A002802D0204604F054FB8C
:10519000206841680922D2029143416020688168F9
:1051A0002A22914381602068016801221143016035
:1051B000204604F0A7FB70BDF0B587B0044614216B
:1051C0006846FBF724FA2468234E05200022234971
:1051D000012302250007B44222D1204C4034276825
:1051E0009E03374327602468344005944C6B1C436E
:1051F0004C63496B029219400591032149020091C9
:105200000195049303926946FEF70CFC00221146B7
:105210001B20FEF76BFD1B20FEF75CFD07B0F0BD09
:105220000F4EB442FAD1CE6B012464042643CE6300
:10523000CE6B264005964C6B1C434C63496B029227
:10524000C907C90F0591074900910195049303927D
:105250006946FEF7E7FBE1E7003801400010024035
:10526000004400400480000070B5034680339C6811
:10527000202C29D100290BD0002A09D001258468CF
:105280002D03AC4206D10469002C03D1CC0701D018
:10529000012070BD1C78012C16D001241C70002345
:1052A000C366046863681B020BD5EFF31083012506
:1052B00085F3108825680126B6063543256083F3FB
:1052C000108804F079FE70BD022070BD10B5006832
:1052D0000349884203D10348007800F057FE10BD0F
:1052E000003801400A0000207047FEE70A4900220A
:1052F0000968002809D1C8698006FCD502E0CB699D
:105300009B0602D5486AC0B270470346401E80B271
:10531000002BF4D1104670472402002070B50546DA
:105320001DA0FAF79BFF1D48FAF798FF1C48FAF7F3
:1053300095FF1C48FAF792FF1B48FAF78FFF1B48AE
:10534000FAF78CFF1A48FAF789FF1A48FAF786FF2E
:1053500019A0FAF783FFFEF71DFC0446FEF71AFCBE
:10536000001BA84209D200210A20FFF7BFFF7328C3
:1053700005D0532803D00028F0D0012070BD0320B1
:1053800004F0ECFF0028F8D101F004F80028F5D073
:105390000120FEF79FFAF7E70D0A0A0044C0000853
:1053A000BCBF000878BF0008F0BE000834BF00088A
:1053B000ACBE000864BE000833C3EBBAF3B3CCD074
:1053C000F2CCF8B9FD2CB0B473BCFCBDF8C8EBBD91
:1053D000BBBBA52E2E2E0D0A0A00000010B50448F6
:1053E0000078002802D00348FEF716FC10BD00002C
:1053F00008000020F400002010B5074A054BD160DA
:105400001360916050601046FEF7D0FB0349012005
:10541000087010BD00300040F4000020080000209B
:1054200010B504466421FBF77FF9002902D0A007DC
:1054300009D006E0FF2191312046FBF775F90029DC
:1054400001D0002010BD012010BD8068C007C00F32
:10545000704780684007C00F7047C0680005800F24
:1054600001D00020704701207047026807239B0588
:105470009A430A430260704710B5436904242140EF
:1054800007248C40A3438A401343436110BD0000AE
:10549000F0B58C4C85B020467E30254663358A4E6B
:1054A0008034039089A0FAF7D9FE684600F00AFD1F
:1054B0003220FEF70FFA684600F004FD0622694626
:1054C0000398FBF745F882A0FAF7C8FE90A0FAF718
:1054D000C5FE80A0FAF7C2FE697F287F090201435A
:1054E00090A0FAF7BBFE6078810905D080090128F9
:1054F00004D0022804D006E08EA002E094A000E0D0
:1055000099A0FAF7ABFE60788006410F19D0400FE2
:10551000012818D0022818D0032818D098A0FAF72C
:105520009DFE6078410714D04007400F012812D03B
:10553000022812D0032812D0042812D0052812D035
:1055400014E097A0EBE79CA0E9E7A1A0E7E7A7A0FC
:10555000E5E7ACA008E0B3A006E0B6A004E0B9A07F
:1055600002E0BEA000E0C2A0FAF778FEA178C5A0D4
:10557000FAF774FEC7A0FAF771FEE0788007800F93
:1055800006D0012806D0022806D0032806D008E05D
:10559000C3A004E0C6A002E0C7A000E0C8A0FAF7DC
:1055A0005DFEC9A0FAF75AFE01210020FFF79EFE1A
:1055B0000746C8A0FAF752FE313F3B0004F030FF27
:1055C00006041C3F6B807F7EC4A0FAF747FE0521CE
:1055D00002A804F075FE002800D163E78F2102982D
:1055E000C905884206DAFBF7DBFF69464870000A06
:1055F0008870B4E2C1A08EE2C7A0FAF72FFECFA058
:10560000FAF72CFED3A0FAF729FED6A0FAF726FE69
:10561000D8A0FAF723FEDBA0FAF720FE012102A8AA
:1056200004F04EFE0028D8D00298B042D5DAFBF73D
:10563000B7FF6946C97880018906890E53E2D4A074
:10564000FAF70CFEDBA0FAF709FEDFA0FAF706FE78
:10565000E2A0FAF703FEE8A0FAF700FEC5A0FAF709
:10566000FDFDC8A0FAF7FAFD012102A804F028FE0A
:105670000028B2D081210298C9058842ADDAFBF733
:105680008FFF4007810E6846C078C7221040014353
:105690006846C17063E2DEA0FAF7E0FDE4A0FAF725
:1056A000DDFDECA0FAF7DAFDEFA0FAF7D7FDF3A0E5
:1056B000FAF7D4FDF8A0FAF7D1FDF7E154E22DE2B4
:1056C00015E2000050030020000040400D0A0000D9
:1056D0000D0A0D0A3D3D3D3D3D3D3D3D3D3D3D3DC0
:1056E0003D3D3D3D3D3D3D3D3D3D3D3D3D3D3D3DEA
:1056F0003D3D3D3D3D3D3D3D3D3D3D3D3D3D3D3DDA
:105700003D3D3D3D3D3D3D3D3D3D3D3D0D0A0000A6
:10571000342E4C6F5261C4A3BFE9C5E4D6C30D0A51
:1057200000000000312EC4A3BFE9B5D8D6B73A2592
:10573000640D0A00322EB4AEBFDACDA8D0C5C4A322
:10574000CABDA3BA384E3128C4ACC8CF290D0A004F
:10575000322EB4AEBFDACDA8D0C5C4A3CABDA3BA99
:105760003830310D0A000000322EB4AEBFDACDA8B9
:10577000D0C5C4A3CABDA3BA3845310D0A00000084
:10578000332EB4AEBFDAB2A8CCD8C2CAB3F6B4EDE9
:10579000A3ACC7EBD6D8D0C2C5E4D6C30D0A00006F
:1057A000332EB4AEBFDAB2A8CCD8C2CAA3BA313253
:1057B00030300D0A00000000332EB4AEBFDAB2A8BC
:1057C000CCD8C2CAA3BA343830300D0A0000000069
:1057D000332EB4AEBFDAB2A8CCD8C2CAA3BA393617
:1057E000303028C4ACC8CF290D0A0000332EB4AE27
:1057F000BFDAB2A8CCD8C2CAA3BA31393230300D20
:105800000A000000342EBFD5D6D0CBD9C2CAD7D417
:10581000CACAD3A6A3A8C1ACD0F8B4ABCAE4A3A9A2
:105820000D0A0000342EBFD5D6D0CBD9C2CA3A312A
:105830004B0D0A00342EBFD5D6D0CBD9C2CA3A35CB
:105840004B0D0A00342EBFD5D6D0CBD9C2CA3A31BF
:10585000304B28C4ACC8CF290D0A0000342EBFD568
:10586000D6D0CBD9C2CA3A35304B0D0A0000000061
:10587000342EBFD5D6D0CBD9C2CA3A3130304B0D39
:105880000A000000352ECDA8D0C5D0C5B5C03A2538
:10589000640D0A00362EB7A2C9E4B9A6C2CA3A00FE
:1058A000313264426D28C4ACC8CF290D0A00000013
:1058B000313064426D0D0A003764426D0D0A0000FC
:1058C0003464426D0D0A00000D0AC7EBCAE4C8EB50
:1058D000A3BA00000D0A0D0A00000000312EC4A377
:1058E000BFE9B5D8D6B7A3A8D0C5B5C0B7B6CEA7BF
:1058F000307E3635353335A3A93A0000B5D8D6B752
:10590000B3ACB3F6B7B6CEA7A3ACC7EBD6D8D0C26C
:10591000C5E4D6C300000000322EB4AEBFDACDA875
:10592000D0C5C4A3CABD2CC7EBCAE4C8EBC8E7CF37
:10593000C2D1A1CFEE0D0A0D0A0000002020302EAA
:1059400020384E31C4A3CABD28C4ACC8CF290D0A23
:10595000000000002020312E20384F31C4A3CABDE2
:105960000D0A00002020322E20384531C4A3CABDC4
:105970000D0A00002020C6E4CBFBCDCBB3F60D0A08
:105980000D0A0000C7EBCAE4C8EBA3BA0000000090
:10599000332EB4AEBFDAB2A8CCD8C2CAA3ACC7EB20
:1059A000CAE4C8EBC8E7CFC2D1A1CFEE0D0A0D0AF9
:1059B000000000002020302E20B2A8CCD8C2CACED1
:1059C000AA313230300D0A002020312E20B2A8CC6E
:1059D000D8C2CACEAA343830300D0A002020322E68
:1059E00020B2A8CCD8C2CACEAA3936303028C4AC2E
:1059F000C8CF290D0A0000002020332E20B2A8CCE9
:105A0000D8C2CACEAA31393230300D0A00000000A7
:105A1000342EBFD5D6D0CBD9C2CA3AC7EBCAE4C858
:105A2000EBC8E7CFC2D1A1CFEE0D0A0D0A000000EE
:105A30002020302EBFD5D6D0CBD9C2CAD7D4CACA1F
:105A4000D3A6A3A8C1ACD0F8B4ABCAE4A3A90D0AED
:105A5000000000002020312EBFD5D6D0CBD9C2CA3D
:105A60003A314B0D0A0000002020322EBFD5D6D08F
:105A7000CBD9C2CA3A354B0D0A0000002020332E84
:105A8000BFD5D6D0CBD9C2CA3A31304B28C4ACC866
:105A9000CF290D0A000000002020342EBFD5D6D01B
:105AA000CBD9C2CA3A35304B0D0A00002FA0FAF705
:105AB000D5FB3348FAF7D2FB31481030FAF7CEFB6A
:105AC000012102A804F0FCFB002800D1EAE42D49E2
:105AD00002988842FADCFBF763FD6946C978400703
